:100000000C9463000C9454040C942D040C948B00F9
:100010000C948B000C948B000C948B000C948B0034
:100020000C948B000C948B000C948B000C94D304D8
:100030000C948B000C948B000C9494050C948B0006
:100040000C94E3030C948B000C94A1040C947B049B
:100050000C948B000C948B000C948B000C948B00F4
:100060000C948B000C948B000000000023002600F1
:10007000290000000000240027002A0000000000E2
:10008000250028002B0004040404040404040202D4
:100090000202020203030303030301020408102007
:1000A0004080010204081020010204081020000012
:1000B0000008000201000003040700000000000027
:1000C00000003606EA0711241FBECFEFD8E0DEBFDE
:1000D000CDBF11E0A0E0B1E0EEE3F3E102C0059096
:1000E0000D92A435B107D9F722E0A4E5B1E001C033
:1000F0001D92A837B207E1F710E0C2E6D0E004C0D5
:100100002197FE010E945A08C136D107C9F70E9403
:1001100080070C9492090C94000008950895FC0146
:10012000538D448D252F30E0842F90E0821B930B5C
:10013000541710F0CF96089501970895FC01918D02
:10014000828D981761F0828DDF01A80FB11D5D9639
:100150008C91928D9F5F9F73928F90E008958FEFA7
:100160009FEF0895FC01918D828D981731F0828D5B
:10017000E80FF11D858D90E008958FEF9FEF0895B2
:10018000FC01918D228D892F90E0805C9F4F821B16
:1001900091098F7399270895FC01848DDF01A80FC1
:1001A000B11DA35ABF4F2C91848D90E001968F739F
:1001B0009927848FA689B7892C93A089B1898C91BE
:1001C00080648C93938D848D981306C00288F38984
:1001D000E02D80818F7D80830895EF92FF920F93B1
:1001E0001F93CF93DF93EC0181E0888F9B8D8C8DE3
:1001F000981305C0E889F989808185FD24C0F62E11
:100200000B8D10E00F5F1F4F0F731127E02E8C8DA9
:10021000E8120CC00FB607FCFACFE889F989808193
:1002200085FFF5CFCE010E94CC00F1CF8B8DFE0172
:10023000E80FF11DE35AFF4FF0820B8FEA89FB892B
:100240008081806207C0EE89FF896083E889F9892F
:1002500080818064808381E090E0DF91CF911F9165
:100260000F91FF90EF900895CF93DF93EC01888D6D
:100270008823C9F0EA89FB89808185FD05C0A889AA
:10028000B9898C9186FD0FC00FB607FCF5CF808130
:1002900085FFF2CFA889B9898C9185FFEDCFCE017A
:1002A0000E94CC00E7CFDF91CF9108958EE591E0D9
:1002B0000E94C00021E0892B09F420E0822F0895DC
:1002C00080E090E0892B29F00E94560181110C9466
:1002D00000000895833081F028F4813099F0823055
:1002E000A1F008958730A9F08830B9F08430D1F4B6
:1002F000809180008F7D03C0809180008F778093F4
:100300008000089584B58F7702C084B58F7D84BD49
:1003100008958091B0008F7703C08091B0008F7DE9
:100320008093B00008951F93CF93DF93282F30E080
:10033000F901E255FF4F8491F901E656FF4FD49140
:10034000F901EA57FF4FC491CC23C9F0162F811150
:100350000E946A01EC2FF0E0EE0FFF1FE458FF4F00
:10036000A591B4918FB7F894111105C09C91ED2F10
:10037000E095E92302C0EC91ED2BEC938FBFDF9168
:10038000CF911F910895CF93DF9390E0FC01E65643
:10039000FF4F2491FC01EA57FF4F8491882361F1BC
:1003A00090E0880F991FFC01EE58FF4FC591D49142
:1003B000FC01E458FF4FA591B491611109C09FB7AA
:1003C000F8948881209582238883EC912E230BC09A
:1003D000623061F49FB7F8943881822F809583232F
:1003E0008883EC912E2B2C939FBF06C08FB7F89477
:1003F000E8812E2B28838FBFDF91CF910895089538
:10040000CF92DF92EF92FF920F931F93CF93DF93E0
:100410006C017A018B01C0E0D0E0CE15DF0589F0D8
:10042000D8016D918D01D601ED91FC910190F08183
:10043000E02DC6010995892B11F47E0102C0219699
:10044000ECCFC701DF91CF911F910F91FF90EF90FB
:10045000DF90CF900895089580E090E00895CF92C6
:10046000DF92EF92FF92CF93DF93EC01603282E054
:1004700078070CF03DC077FD06C0653B71052CF098
:1004800064EB70E002C060E070E0898128E830E051
:100490006901C81AD10887FDD394CC0CDD1CCC0CA3
:1004A000DD1C0D2C000CEE08FF088A8128E532E0E7
:1004B000281B310987FD3395220F331F220F331F6D
:1004C000C901330FAA0BBB0B9C01AD012C193D09CF
:1004D0004E095F09DB010E94150824EB30E040E083
:1004E00050E00E94EB07C20ED31EE41EF51EB601BB
:1004F00088818C3080F5998148E850E0491B51098A
:1005000097FD5395440F551F440F551F64177507EA
:1005100084F09A8128E532E0291B310997FD339553
:10052000220F331F220F331FAB01261737070CF49E
:10053000A90142505109440F551F2FB7F89490E07C
:10054000FC01EE0FFF1F8E0F9F1FFC01E550FE4FB9
:10055000528341832FBFDF91CF91FF90EF90DF90C7
:10056000CF9008951F93CF93DF93EC01162F8881CE
:100570008C3008F04EC061E0812F0E94C301888159
:10058000E82FF0E09F01220F331FE20FF31FE55029
:10059000FE4F1F739081907C192B108319821A8251
:1005A0006CE00E944E089CE0899FB001112440E05D
:1005B00050E09A01260F371FF901EE0FFF1F2E0F93
:1005C0003F1FF901E550FE4F908196FD16C04F5F29
:1005D0005F4F4C30510569F781110FC010928000B8
:1005E00082E0809381001092850010928400B19A7D
:1005F00080916F00826080936F00E881F0E0CF010E
:10060000880F991FE80FF91FE550FE4F8081806425
:1006100080838881DF91CF911F910895CF93DF93DD
:10062000EC012FB7F89480915A0190915B01A09151
:100630005C01B0915D012FBF8B879C87AD87BE8722
:100640006D817E818F819885680F791F7E836D8390
:10065000CE0102960E942F028D819E810197833BDD
:10066000910538F08F8198859195819591099887AA
:100670008F83DF91CF9108950F931F93FC018485A1
:10068000958581309105D9F486859785A089B189B2
:100690008A019B01081B190B2A0B3B0B8481958156
:1006A000A681B781081719072A073B0758F1158655
:1006B000148646875787608B718B60E01EC0892B3C
:1006C00009F586859785A089B1898A019B01081B58
:1006D000190B2A0B3B0B80859185A285B3850817E2
:1006E00019072A073B0770F081E090E0958784871F
:1006F00046875787608B718B61E082811F910F91D4
:100700000C9493011F910F910895CF93DF9300975D
:1007100079F0FC0101900020E9F73197AF01481B07
:10072000590BBC018EE591E00E940002EC0102C071
:10073000C0E0D0E042E050E06CE271E08EE591E094
:100740000E9400028C0F9D1FDF91CF91089510929F
:1007500035021092340260E070E081E392E00E9482
:100760002F02809136029091370297FF03C0919536
:100770008195910990933702809336028FE291E040
:100780000E948503109226021092250260E070E01C
:1007900082E292E00E942F0280912702909128022B
:1007A00097FF03C0919581959109909328028093BA
:1007B000270281E491E00C9485030E948D090C943A
:1007C000F5080C94F5081F920F920FB60F921124A2
:1007D0002F933F938F939F93AF93BF9380915A0131
:1007E00090915B01A0915C01B0915D013091590144
:1007F00023E0230F2D3720F40196A11DB11D05C064
:1008000026E8230F0296A11DB11D20935901809364
:100810005A0190935B01A0935C01B0935D018091BC
:10082000550190915601A0915701B0915801019640
:10083000A11DB11D8093550190935601A0935701BE
:10084000B0935801BF91AF919F918F913F912F919C
:100850000F900FBE0F901F9018951F920F920FB61A
:100860000F9211242F933F934F935F936F937F9336
:100870008F939F93AF93BF93EF93FF93E091020108
:10088000F09103010995FF91EF91BF91AF919F9175
:100890008F917F916F915F914F913F912F910F9029
:1008A0000FBE0F901F9018951F920F920FB60F92C8
:1008B00011242F933F934F935F936F937F938F9365
:1008C0009F93AF93BF93EF93FF93E0910001F0915B
:1008D00001010995FF91EF91BF91AF919F918F9188
:1008E0007F916F915F914F913F912F910F900FBE2C
:1008F0000F901F9018951F920F920FB60F92112410
:100900002F933F934F935F936F937F938F939F9317
:10091000AF93BF93EF93FF938EE591E00E94CC00DD
:10092000FF91EF91BF91AF919F918F917F916F91C7
:100930005F914F913F912F910F900FBE0F901F909D
:1009400018951F920F920FB60F9211242F938F9329
:100950009F93EF93FF93E0916E01F0916F0180817F
:10096000E0917401F091750182FD12C09081809137
:1009700077018F5F8F7320917801821751F0E0919A
:100980007701F0E0E25AFE4F958F8093770101C026
:100990008081FF91EF919F918F912F910F900FBECA
:1009A0000F901F9018951F920F920FB60F9211245F
:1009B0002F933F934F935F936F937F938F939F9367
:1009C000AF93BF93EF93FF938091540187FF05C0CE
:1009D00010928500109284001BC020915401022EB9
:1009E000000C330B80911F0290E02817390784F424
:1009F00080915401082E000C990BFC01EE0FFF1F93
:100A00008E0F9F1FFC01E550FE4F808186FD15C0B3
:100A1000809154018F5F8093540120915401022EE4
:100A2000000C330B80911F0290E028173907C4F4A3
:100A3000809154018C3064F113C080915401082ED0
:100A4000000C990BFC01EE0FFF1F8E0F9F1FFC0186
:100A5000E550FE4F808160E08F730E949301D8CFF4
:100A60008091840090918500049680349C4918F40C
:100A700080E49CE905C080918400909185000496F3
:100A800090938900809388008FEF809354013BC03E
:100A9000209184003091850080915401082E000C33
:100AA000990BFC01EE0FFF1F8E0F9F1FFC01E550FD
:100AB000FE4F81819281820F931F909389008093D2
:100AC000880080915401082E000C990BFC01EE0F58
:100AD000FF1F8E0F9F1FFC01E550FE4F808186FF98
:100AE00012C080915401082E000C990BFC01EE0FEE
:100AF000FF1F8E0F9F1FFC01E550FE4F808161E0BC
:100B00008F730E949301FF91EF91BF91AF919F91DD
:100B10008F917F916F915F914F913F912F910F90A6
:100B20000FBE0F901F9018951F920F920FB60F9245
:100B30001124CF92DF92EF92FF922F933F934F9326
:100B40005F936F937F938F939F93AF93BF93CF9355
:100B5000DF93EF93FF938FB7F894C0905A01D09032
:100B60005B01E0905C01F0905D018FBF80913A02E3
:100B700090913B02A0913C02B0913D02B701A601C9
:100B8000481B590B6A0B7B0B8091380290913902FC
:100B9000092E000CAA0BBB0B84179507A607B707F5
:100BA00020F48FE292E00E940E03E0EBF0E08491EB
:100BB000ECE9F0E0D491E8E8F0E0C491CC2399F1BD
:100BC00081110E946A01EC2FF0E0EE0FFF1FE8593F
:100BD000FF4FA591B491EC91ED2329F180912B0267
:100BE00090912C02A0912D02B0912E02B701A60186
:100BF000481B590B6A0B7B0B8091290290912A02AA
:100C0000092E000CAA0BBB0B84179507A607B70784
:100C100020F480E292E00E940E03B701A60182E672
:100C200092E00E943C03B701A60180E592E00E9499
:100C30003C03B701A6018EE392E00E943C03FF91C2
:100C4000EF91DF91CF91BF91AF919F918F917F9164
:100C50006F915F914F913F912F91FF90EF90DF90B7
:100C6000CF900F900FBE0F901F901895CF93DF93EA
:100C7000109261011092600188EE93E0A0E0B0E074
:100C80008093620190936301A0936401B093650126
:100C90008EE091E090935F0180935E0185EC90E09F
:100CA00090936B0180936A0184EC90E090936D01C6
:100CB00080936C0180EC90E090936F0180936E01C3
:100CC00081EC90E0909371018093700182EC90E050
:100CD000909373018093720186EC90E0909375017C
:100CE000809374011092770110927801109279012B
:100CF00010927A01C8E2D1E0D0936302C0936202FD
:100D00008BE090E0909365028093640261E00E9422
:100D1000C3018BE790E0A0E0B0E08093660290937F
:100D20006702A0936802B093690280E991E0A0E0B5
:100D3000B0E080936A0290936B02A0936C02B09330
:100D40006D0210926F0210926E0210927002109259
:100D500071021092720210927302D0935102C093EA
:100D600050028CE090E0909353028093520261E035
:100D70000E94C3018EE591E0A0E0B0E080935402B0
:100D800090935502A0935602B09357028093580255
:100D900090935902A0935A02B0935B0210925D02A5
:100DA00010925C0210925E0210925F02109260023A
:100DB00010926102D0933F02C0933E028DE090E01A
:100DC000909341028093400261E00E94C30188EC4D
:100DD00090E0A0E0B0E08093420290934302A093A1
:100DE0004402B09345028EED90E0A0E0B0E0809325
:100DF000460290934702A0934802B0934902109292
:100E00004B0210924A0210924C0210924D02109224
:100E10004E0210924F0280E291E090933002809354
:100E20002F0280911F028C30A0F491E0980F9093D4
:100E30001F028093310290E0FC01EE0FFF1F8E0F26
:100E40009F1FFC01E550FE4F88EB9BE0928381835E
:100E500003C08FEF8093310289E190E090933902D3
:100E60008093380281E090E09093370280933602BD
:100E700010923A0210923B0210923C0210923D02F4
:100E8000109235021092340280E291E09093210298
:100E90008093200280911F028C30A0F491E0980F83
:100EA00090931F028093220290E0FC01EE0FFF1F3F
:100EB0008E0F9F1FFC01E550FE4F88EB9BE0928355
:100EC000818303C08FEF8093220283E290E09093AE
:100ED0002A028093290281E090E090932802809377
:100EE000270210922B0210922C0210922D021092C7
:100EF0002E021092260210922502DF91CF910895C2
:100F0000789484B5826084BD84B5816084BD85B5E4
:100F1000826085BD85B5816085BD80916E008160F0
:100F200080936E0010928100809181008260809396
:100F30008100809181008160809381008091800098
:100F40008160809380008091B10084608093B100C3
:100F50008091B00081608093B00080917A008460BD
:100F600080937A0080917A00826080937A008091E9
:100F70007A00816080937A0080917A008068809303
:100F80007A001092C10069E070E081E392E00E9473
:100F9000B2026AE070E082E292E00E94B2028FEA5E
:100FA00087BD80916E00826080936E0062E082E077
:100FB0000E94C30187EA93E09093010180930001AE
:100FC000809169008C7F826080936900E89A0E941A
:100FD0006001FDCF0895052E97FB1EF400940E943A
:100FE000020857FD07D00E941D0807FC03D04EF4ED
:100FF0000C94020850954095309521953F4F4F4FE6
:101000005F4F089590958095709561957F4F8F4FB4
:101010009F4F08950E943F08A59F900DB49F900D8B
:10102000A49F800D911D11240895B7FF0C940A0808
:101030000E940A08821B930B0895A1E21A2EAA1B94
:10104000BB1BFD010DC0AA1FBB1FEE1FFF1FA21778
:10105000B307E407F50720F0A21BB30BE40BF50B75
:10106000661F771F881F991F1A9469F760957095FE
:10107000809590959B01AC01BD01CF010895A29F81
:10108000B001B39FC001A39F700D811D1124911D5C
:10109000B29F700D811D1124911D0895991B79E057
:1010A00004C0991F961708F0961B881F7A95C9F7F8
:1010B00080950895EE0FFF1F0590F491E02D09949F
:1010C000CF93DF938230910510F482E090E0E091BD
:1010D0007602F091770220E030E0C0E0D0E0309777
:1010E00011F14081518148175907C0F0481759073D
:1010F00061F482819381209719F09B838A832BC0AE
:10110000909377028093760226C02115310519F05D
:101110004217530718F49A01BE01DF01EF01028064
:10112000F381E02DDCCF2115310509F1281B390BA6
:101130002430310590F412968D919C91139761158E
:10114000710521F0FB019383828304C090937702A1
:1011500080937602FD01329644C0FD01E20FF31F39
:1011600081939193225031092D933C933AC0209161
:10117000740230917502232B41F4209106013091C5
:10118000070130937502209374022091040130917D
:1011900005012115310541F42DB73EB740910801F5
:1011A00050910901241B350BE0917402F0917502F6
:1011B000E217F307A0F42E1B3F0B2817390778F02E
:1011C000AC014E5F5F4F2417350748F04E0F5F1F8D
:1011D00050937502409374028193919302C0E0E0B2
:1011E000F0E0CF01DF91CF9108950F931F93CF933C
:1011F000DF93009709F48CC0FC01329713821282AE
:1012000000917602109177020115110581F4208179
:101210003181820F931F209174023091750228173B
:10122000390779F5F0937502E093740271C0D80123
:1012300040E050E0AE17BF0750F412962D913C915C
:101240001397AD012115310509F1D901F3CF9D01A6
:10125000DA013383228360817181860F971F8217A1
:10126000930769F4EC0128813981260F371F2E5F1F
:101270003F4F318320838A819B8193838283452BD7
:1012800029F4F0937702E093760242C01396FC9320
:10129000EE931297ED01499159919E01240F351F4C
:1012A000E217F30771F480819181840F951F0296F4
:1012B00011969C938E938281938113969C938E9327
:1012C0001297E0E0F0E0D80112968D919C9113976F
:1012D000009719F0F8018C01F6CF8D919C9198013F
:1012E0002E5F3F4F820F931F209174023091750241
:1012F0002817390769F4309729F410927702109271
:10130000760202C013821282109375020093740257
:10131000DF91CF911F910F91089581E090E0F894B3
:101320000C94920910E0C2E6D0E004C0FE010E94D5
:0E1330005A082196C336D107C9F7F894FFCFAB
:10133E00FF01FF0100007802800000000000ED00B8
:10134E0000028F003401C0009E00B20000000000B9
:10135E008D00DF03000000008E00E1030D0A005334
:10136E0077656570657220312052657365743A2019
:10137E00005377656570657220322052657365740F
:04138E003A20000001
:00000001FF
